:100000000C942A000C9436000C9434000C943400A8
:100010000C9434000C9434000C9434000C94340090
:100020000C9434000C9434000C9434000C94340080
:100030000C9434000C9434000C9434000C94340070
:100040000C9434000C9434000C9434000C94340060
:100050000C94340011241FBECFE5D8E0DEBFCDBF25
:100060000E94BD020C9414050C9400001F920F9284
:100070000FB60F9211240F900FBE0F901F9018957E
:10008000623459F118F4613441F00895633409F48D
:1000900044C0643409F460C0089541110EC04AB3ED
:1000A00021E030E0B90102C0660F771F8A95E2F7C0
:1000B000CB01809584238ABB0895413009F06AC042
:1000C0004AB321E030E0B90102C0660F771F8A957C
:1000D000E2F7CB01842B8ABB089541110EC047B3D0
:1000E00021E030E0B90102C0660F771F8A95E2F780
:1000F000CB018095842387BB0895413009F04AC025
:1001000047B321E030E0B90102C0660F771F8A953E
:10011000E2F7CB01842B87BB089541110EC044B395
:1001200021E030E0B90102C0660F771F8A95E2F73F
:10013000CB018095842384BB0895413059F544B3A5
:1001400021E030E0B90102C0660F771F8A95E2F71F
:10015000CB01842B84BB089541110EC041B321E033
:1001600030E0B90102C0660F771F8A95E2F7CB0134
:100170008095842381BB0895413061F441B321E02F
:1001800030E0B90102C0660F771F8A95E2F7CB0114
:10019000842B81BB0895623459F118F4613441F025
:1001A0000895633409F444C0643409F460C00895C8
:1001B00041110EC04BB321E030E0B90102C0660F1F
:1001C000771F8A95E2F7CB01809584238BBB089536
:1001D000413009F06AC04BB321E030E0B90102C000
:1001E000660F771F8A95E2F7CB01842B8BBB0895AE
:1001F00041110EC048B321E030E0B90102C0660FE2
:10020000771F8A95E2F7CB018095842388BB0895F8
:10021000413009F04AC048B321E030E0B90102C0E2
:10022000660F771F8A95E2F7CB01842B88BB089570
:1002300041110EC045B321E030E0B90102C0660FA4
:10024000771F8A95E2F7CB018095842385BB0895BB
:10025000413059F545B321E030E0B90102C0660FE5
:10026000771F8A95E2F7CB01842B85BB0895411156
:100270000EC042B321E030E0B90102C0660F771F23
:100280008A95E2F7CB018095842382BB08954130A3
:1002900061F442B321E030E0B90102C0660F771F7C
:1002A0008A95E2F7CB01842B82BB08956234B1F0CA
:1002B00018F4613431F008956334E9F0643441F1A5
:1002C00008954BB321E030E0B90102C0660F771FFB
:1002D0008A95E2F7CB0184278BBB089548B321E0D0
:1002E00030E0B90102C0660F771F8A95E2F7CB01B3
:1002F000842788BB089545B321E030E0B90102C0EE
:10030000660F771F8A95E2F7CB01842785BB089596
:1003100042B321E030E0B90102C0660F771F8A9531
:10032000E2F7CB01842782BB0895623409F118F407
:10033000613439F061C0633491F1643409F446C02A
:100340005BC099B321E030E0B901082E02C0660F0E
:10035000771F0A94E2F7292F30E026233723B901CB
:1003600002C0759567958A95E2F7FA01608344C0EB
:1003700096B321E030E0B901082E02C0660F771F66
:100380000A94E2F7292F30E026233723B90102C06F
:10039000759567958A95E2F7FA0160832DC093B34E
:1003A00021E030E0B901082E02C0660F771F0A94E1
:1003B000E2F7292F30E026233723B90102C07595D3
:1003C00067958A95E2F7FA01608316C090B321E041
:1003D00030E0B901082E02C0660F771F0A94E2F7D9
:1003E000292F30E026233723B90102C07595679580
:1003F0008A95E2F7FA016083FA018081089513BEBD
:1004000008958F929F92AF92BF92CF92DF92EF9218
:10041000FF92BC0180E090E00E941C046B017C0113
:100420002FE632E143E852E40E947603882309F480
:1004300042C02FE632E143E852E4C701B6010E9410
:100440000F0518160CF52FE632E143E852E4C70118
:10045000B6010E947B030E945F034B015C012FE603
:1004600032E143E85EE3C701B6010E947B03A501C8
:1004700094010E947B039B01AC0160E070E080E886
:1004800093E40E94F20222C0A70196016FE672E196
:1004900083E892E40E94F2022FE632E143E85EE351
:1004A0000E947B030F2E812C912CF0E8AF2EFFE3EE
:1004B000BF2EF02D0BC00F2E812C912CF0E8AF2E0B
:1004C000FFE3BF2EF02D60E070E0CB010E94ED0352
:1004D00062BF83B7846083BFC12CD12C760113C067
:1004E00088B7816088BF08B600FEFDCF88B78160FD
:1004F00088BF20E030E040E85FE3C701B6010E941A
:10050000F3026B017C01A5019401C701B6010E94B1
:10051000760388232CF313BEFF90EF90DF90CF90EB
:10052000BF90AF909F908F900895982F862F40E0B6
:10053000692F0E9440000895982F862F692F0E94EE
:1005400095010895982F862F41E0692F0E94400061
:100550000895982F862F41E0692F0E94CB000895BF
:10056000982F862F40E0692F0E94CB000895982F86
:10057000862F692F0E945601089560E082E40E9450
:10058000A20262E084E40E9495020E94FF0140E022
:1005900050E062E084E40E949C028091000081119E
:1005A00018C060E082E40E94A90280ED97E00E94FA
:1005B0000102C0E0D0E009C084E690E00E940102A0
:1005C00060E082E40E94B7022196CE31D105A4F307
:1005D000DECF60E082E40E94B00288E893E10E94EE
:1005E0000102D5CF5058BB27AA270E940A030C94BA
:1005F000BD040E94AF0438F00E94B60420F039F424
:100600009F3F19F426F40C94AC040EF4E095E7FB3C
:100610000C947D04E92F0E94CE0458F3BA176207A8
:1006200073078407950720F079F4A6F50C94080564
:100630000EF4E0950B2EBA2FA02D0B01B9019001FD
:100640000C01CA01A0011124FF27591B99F0593F41
:1006500050F4503E68F11A16F040A22F232F342F89
:100660004427585FF3CF469537952795A795F040D7
:100670005395C9F77EF41F16BA0B620B730B840BEC
:10068000BAF09150A1F0FF0FBB1F661F771F881FA4
:10069000C2F70EC0BA0F621F731F841F48F48795FC
:1006A00077956795B795F7959E3F08F0B0CF9395EE
:1006B000880F08F09927EE0F9795879508950E9467
:1006C000F00490F09F3748F4911116F40C9409054A
:1006D00060E070E080E89FE3089526F01B16611D3E
:1006E000711D811D0C9483040C949E040E94590476
:1006F00008F481E008950E948F030C94BD040E94C9
:10070000B60458F00E94AF0440F029F45F3F29F08E
:100710000C947D0451110C9409050C94AC040E94B6
:10072000CE0468F39923B1F3552391F3951B550B30
:10073000BB27AA2762177307840738F09F5F5F4FB4
:10074000220F331F441FAA1FA9F335D00E2E3AF0F3
:10075000E0E832D091505040E695001CCAF72BD00B
:10076000FE2F29D0660F771F881FBB1F261737075C
:100770004807AB07B0E809F0BB0B802DBF01FF278E
:1007800093585F4F3AF09E3F510578F00C947D04EA
:100790000C9409055F3FE4F3983ED4F38695779572
:1007A0006795B795F7959F5FC9F7880F911D969547
:1007B000879597F90895E1E0660F771F881FBB1FA3
:1007C000621773078407BA0720F0621B730B840B50
:1007D000BA0BEE1F88F7E09508950E94D60488F0C2
:1007E0009F5798F0B92F9927B751B0F0E1F0660FF5
:1007F000771F881F991F1AF0BA95C9F714C0B13036
:1008000091F00E940805B1E008950C940805672F47
:10081000782F8827B85F39F0B93FCCF38695779564
:100820006795B395D9F73EF490958095709561954D
:100830007F4F8F4F9F4F0895E89409C097FB3EF478
:1008400090958095709561957F4F8F4F9F4F99231D
:10085000A9F0F92F96E9BB279395F695879577959B
:100860006795B795F111F8CFFAF4BB0F11F460FF5B
:100870001BC06F5F7F4F8F4F9F4F16C0882311F0B3
:1008800096E911C0772321F09EE8872F762F05C0C7
:10089000662371F096E8862F70E060E02AF09A9562
:1008A000660F771F881FDAF7880F9695879597F957
:1008B0000895990F0008550FAA0BE0E8FEEF1616F1
:1008C0001706E807F907C0F012161306E407F50744
:1008D00098F0621B730B840B950B39F40A2661F0B8
:1008E000232B242B252B21F408950A2609F4A1405B
:1008F000A6958FEF811D811D089597F99F6780E868
:1009000070E060E00895882371F4772321F0985017
:10091000872B762F07C0662311F499270DC09051BD
:10092000862B70E060E02AF09A95660F771F881F8B
:10093000DAF7880F9695879597F908959F3F31F0DC
:10094000915020F4879577956795B795880F911DFD
:100950009695879597F908959FEF80EC0895002468
:100960000A941616170618060906089500240A9414
:1009700012161306140605060895092E0394000C9A
:1009800011F4882352F0BB0F40F4BF2B11F460FF29
:1009900004C06F5F7F4F8F4F9F4F089557FD905852
:1009A000440F551F59F05F3F71F04795880F97FB33
:1009B000991F61F09F3F79F08795089512161306ED
:1009C0001406551FF2CF4695F1DF08C0161617061C
:1009D0001806991FF1CF8695710561050894089551
:1009E0000E94D604A0F0BEE7B91788F4BB279F3851
:1009F00060F41616B11D672F782F8827985FF7CF00
:100A0000869577956795B11D93959639C8F30895A6
:100A1000E894BB2766277727CB0197F908950E94B2
:0C0A2000590408F48FEF0895F894FFCFFC
:00000001FF
